:020000040800F2
:100000000050002075030008BD030008BD03000870
:10001000BD030008BD030008BD0300080000000088
:10002000000000000000000000000000BD03000808
:10003000BD03000800000000BD030008BD03000868
:10004000BD030008BD030008BD030008BD03000890
:10005000BD030008BD030008BD030008BD03000880
:10006000BD030008BD030008BD030008BD03000870
:10007000BD030008BD030008BD030008BD03000860
:10008000BD030008BD030008BD030008BD03000850
:10009000BD030008BD030008BD030008BD03000840
:1000A000BD030008BD030008BD030008BD03000830
:1000B000BD030008BD030008BD030008BD03000820
:1000C000BD030008BD030008BD030008BD03000810
:1000D000BD030008BD030008BD030008BD03000800
:1000E000BD030008BD030008BD03000800000000B8
:1000F0000000000000000000000000000000000000
:0C01000000000000000000005FF808F1A3
:10010C000348044B834202D0034B03B1184770479A
:10011C0014000020140000200000000005480649CF
:10012C000B1AD90F01EBA301491002D0034B03B1F9
:10013C001847704714000020140000200000000035
:10014C0010B5064C237843B9FFF7DAFF044B13B113
:10015C000448AFF300800123237010BD140000206D
:10016C00000000000C01000808B5044B1BB1044949
:10017C000448AFF30080BDE80840CFE70000000062
:10018C00180000200C01000830B400244FF41F05A7
:10019C003A4B3B4A196882B041F001011960596829
:1001AC0018460A405A601A6822F0847222F480328F
:1001BC001A601A6822F480221A605A6822F4FE022D
:1001CC005A609D60009401941A6842F480321A605F
:1001DC0003E0009BB3F5A06F09D0036803F4003370
:1001EC000193009B01330093019B002BF1D0234B17
:1001FC001B6813F4003318BF01230193019B012BDF
:10020C0006D04FF000621F4B9A6002B030BC7047B2
:10021C001D491A4B08681A4640F01000086008681F
:10022C0020F003000860086840F00200086059687C
:10023C00596059685960596841F48061596059682E
:10024C0021F47C115960596841F4E811596019681E
:10025C0041F08071196013689B01FCD55368074904
:10026C0023F003035360536843F0020353604B685D
:10027C0003F00C03082BFAD1C3E700BF00100240B7
:10028C000000FFF800ED00E000200240114A536826
:10029C0003F00C03082B09D00F4B0E4A0F49526880
:1002AC00C2F303128A5CD3400B61704753685168E8
:1002BC00C3F38343C90303F1020306D552689203C7
:1002CC0003D4054A02FB03F3E7E7054A02FB03F3F9
:1002DC00E3E700BF0010024000127A00000000208B
:1002EC0000093D0070B50D4E0D4D761BB61006D0B5
:1002FC000024013455F8043B9847A642F9D1094E25
:10030C00094D00F057F8761BB61006D000240134C6
:10031C0055F8043B9847A642F9D170BDE00300089C
:10032C00E0030008E4030008E00300080B4B0C4852
:10033C001A46816941F010018161596841F44011FC
:10034C005960596821F440015960064B013BFDD1BD
:10035C00D36883F40053D360F7E700BF001001406B
:10036C000010024040420F00002103E00B4B5B5891
:10037C00435004310A480B4B42189A42F6D30A4AAE
:10038C0002E0002342F8043B084B9A42F9D3FFF7F2
:10039C00FBFEFFF7A7FFFFF7C9FF7047E803000854
:1003AC000000002014000020140000203000002069
:1003BC00FEE70000F8B500BFF8BC08BC9E467047CD
:0C03CC00F8B500BFF8BC08BC9E467047A6
:0803D800BCFDFF7F01000000E5
:0403E000750100089B
:0403E4004D010008BF
:1003E80000000000000000000102030406070809DD
:0403F80000A24A0411
:040000050800037577
:00000001FF
